:100000000C9434000C9451000C9451000C94510049
:100010000C9451000C9451000C9451000C9451001C
:100020000C9451000C9451000C9451000C9451000C
:100030000C9451000C9451000C9451000C945100FC
:100040000C94EA030C9451000C9452010C9451004E
:100050000C94B7010C9451000C9451000C94510075
:100060000C9451000C94510011241FBECFEFD8E026
:10007000DEBFCDBF11E0A0E0B1E0E0EAFFE002C0EA
:1000800005900D92A432B107D9F723E0A4E2B1E0C4
:1000900001C01D92A336B207E1F70E9440040C9400
:1000A000CE070C940000429A82E08A95F1F700C0D6
:1000B00042980895CF93C82F662311F0409A01C04B
:1000C00040984198209A579A569A559A5D985E980A
:1000D0005F982898CC230CF45D9AC6FD5E9AC5FD06
:1000E0005F9AC4FD289A0E9453005D985E985F98BD
:1000F0002898C3FD5D9AC2FD5E9AC1FD5F9AC0FD5E
:10010000289A0E945300289A5F9A5E9A5D9ACF912E
:100110000895882311F0409A01C04098419A209890
:10012000579856985598429A82E08A95F1F700C000
:10013000189B02C080E101C080E04F9980624E9917
:1001400080644D998068429892E09A95F1F700C0DA
:10015000429A92E09A95F1F700C0189981604F9900
:1001600082604E9984604D9988604298089580E03D
:100170000E9489008823DCF38AE08A95F1F700C0A9
:1001800080E00E94890008951092C00088ED80935D
:10019000C1008EE88093C2001092C50089E180936F
:1001A000C4000895CF93C82F0E94B7008FE99FE045
:1001B0000197F1F700C0000060E08C2F0E945A0008
:1001C000CF91089581E00E94D2000895CF93C82F67
:1001D0000E94B700CA30A1F4843148F090EC980F27
:1001E000943138F084518C3230F080E005C080E4E6
:1001F00003C084E101C084E580580E94D20004C09D
:1002000061E08C2F0E945A00CF910895CF93DF9325
:10021000EC012196FC018081882329F00E94E600F0
:1002200089918111FBCFDF91CF910895CF93C82F92
:10023000389A399A3A9A209A579A569A559A8FEF3D
:100240009CE70197F1F700C000005F9A289A0E948E
:1002500053008FE097E20197F1F700C000000E9481
:1002600053009AEA9A95F1F700C00E9453008AEA77
:100270008A95F1F700C028980E9453009AEA9A954F
:10028000F1F700C088E20E94D20088E00E94D2000C
:100290000E94E20086E00E94D2008C2F0E94D200D1
:1002A000CF9108951F920F920FB60F9211242F93A2
:1002B0003F934F935F936F937F938F939F93AF93EE
:1002C000BF93CF93DF93EF93FF938091C000882378
:1002D000DCF5A6ECB0E04AEF50E0E0ECF0E02C9169
:1002E0009091620391FD2DC030914901353620F087
:1002F00091609093620305C09460909362031092A2
:1003000049018C7141F080916203816080936203A6
:100310001092490116C08091470190914801BC019B
:100320006F5F7F4F7093480160934701EC01CE5996
:10033000DD4F28836B3F710520F0509348014093B7
:100340004701808188235CF2FF91EF91DF91CF918B
:10035000BF91AF919F918F917F916F915F914F91DD
:100360003F912F910F900FBE0F901F9018951F92E5
:100370000F920FB60F9211242F933F938F939F9359
:10038000EF93FF938091C00085FF2BC080914501C2
:10039000909146012091430130914401281739077B
:1003A00070F09C012F5F3F4F309346012093450131
:1003B000FC01EE59FE4F80818093C60012C010925E
:1003C000440110924301109246011092450110928F
:1003D0004801109247015A9880916203806180938E
:1003E0006203FF91EF919F918F913F912F910F9019
:1003F0000FBE0F901F90189598278927982708956A
:10040000AC018FEF9FEF30E0FA01E30FF11D208187
:10041000822728E080FF07C09695879571E087279F
:1004200070EA972702C096958795215099F73F5F0C
:10043000631750F70E94FC0108950F93CF93E2E6F3
:10044000F1E080836183528343838DEF860F823096
:1004500020F41482058386E001C084E0663061F4F4
:10046000E82FF0E0EE59FE4F3083E1E0E80FF0E0D6
:100470008E5FEE59FE4F2083CFEFC80F6C2F82E6C0
:1004800091E00E9400026C2F70E0FB01EE59FE4FDC
:1004900091836E5F7F4FFB01EE59FE4F8083709317
:1004A000440160934301109246011092450110925D
:1004B0004801109247015A9A809145019091460156
:1004C0009C012F5F3F4F3093460120934501FC0173
:1004D000EE59FE4F80818093C600CF910F91089511
:1004E0000F931F93CF93C0916203C0FF03C086E6B2
:1004F00090E002C085E690E0C1FF78C0009147011E
:10050000109148016DEF600F82E692E00E940002B8
:10051000F801EF59FD4F908198134FC090916202FE
:100520008091620198134CC08091630288233CF44F
:10053000CD7FC09362038091640290E052C084300A
:10054000B1F0863031F18330F1F52091640222233D
:10055000E9F1E5E6F2E0AAE4B1E0215030E02A5901
:100560003D4F81918D93E217F307D9F732C0209167
:100570006402222389F1E5E6F2E0AAE4B1E0215029
:1005800030E02A593D4F81918D93E217F307D9F757
:1005900026C0E4E6F1E0A4E6B2E048E651E084E6F5
:1005A00090E079E660E031912D91321711F0872FBC
:1005B000962FE417F507B9F714C088E690E011C04C
:1005C00087E690E00EC084E690E00BC084E690E001
:1005D00008C084E690E005C084E690E002C084E6AE
:1005E00090E0209162032D7F20936203CF911F91B1
:1005F0000F9108958091620380FF08C08E7F8093E1
:1006000062031092480110924701089582FF12C0C0
:10061000909149019F5F90934901953158F0109254
:1006200042011092410110924901837E82608093C1
:1006300062035A9A8091620384FF18C0209141019D
:10064000309142012F5F3F4F213293E0390728F468
:10065000309342012093410108951092420110927B
:1006600041018F7E8860809362035A9A089527988B
:100670002F9A26982E9A53985B9A54985C9A3B9A94
:100680004398219A2998229A2A9A529A5A9884E051
:1006900085BD80EF86BD82E28093800089E18093F2
:1006A000810010928500109284008FE08093870073
:1006B0008FE9809386001092890010928800109232
:1006C0008B0010928A0081E080936E000E94C4002B
:1006D00080E090E00E9466078630E9F483E090E0D5
:1006E0000E946E0790932A01809329018FE19EE476
:1006F0000197F1F700C0000081E090E00E946E07D2
:1007000090932801809327018FE19EE40197F1F7F0
:1007100000C0000031C086EA90E090932A018093E7
:1007200029018FE99FE0909328018093270166EAD1
:1007300070E083E090E00E9482078FE39CE90197DC
:10074000F1F700C00000609127017091280181E05D
:1007500090E00E9482078FE39CE90197F1F700C0C7
:10076000000066E080E090E00E9474078FE39CE95F
:100770000197F1F700C0000078948CE00E94160108
:100780009FE728E381E0915020408040E1F700C0DE
:1007900000000895809126018823D9F01092260147
:1007A00080913F01813039F018F0823051F00FC054
:1007B00029984398089595B182E0892785B943988F
:1007C0000895299898B188E0892788B908952998CB
:1007D000439808951F920F920FB60F9211242F93F2
:1007E0003F934F935F936F937F938F939F93AF93B9
:1007F000BF93EF93FF9380EF86BD809125018F5FBC
:1008000080932501809124018F5F8093240190E0E3
:100810002091400148EC249F9001112482179307F6
:100820002CF01092240181E0809326010E94FA02AC
:100830000E94CA03FF91EF91BF91AF919F918F9159
:100840007F916F915F914F913F912F910F900FBECC
:100850000F901F9018950E94E20080E80E94D2003D
:1008600080E091E00E9406012FEF81E19AE721509C
:1008700080409040E1F700C000000E94E20008952F
:100880000E9437030E942B0482E0809340018091F4
:100890003F01826080933F0188EB9BE090938B0047
:1008A00080938A000F2EFAE4CF2EF1E0DF2EF02D98
:1008B0000F2EF5E1EF2EF1E0FF2EF02DCBE2D1E08F
:1008C0000E94E20080EC0E94D2002FEF34E34CE063
:1008D000215030404040E1F700C0000002E020E03D
:1008E00030E040E050E164E087EF0E941D028FEFAE
:1008F00099E6E8E181509040E040E1F700C0000057
:100900000E947002FFEF20E732E0F15020403040BB
:10091000E1F700C000008436910539F4F6018081CA
:1009200090E0982F88272181822B9F938F93FF92AD
:10093000EF92DF93CF930E94B30480EC0E94D20029
:10094000CE010E9406013FEF49E688E13150404068
:100950008040E1F700C000000F900F900F900F90C3
:100960000F900F90ADCFAEE0B0E0E9EBF4E00C9467
:10097000A5070D891E8986E08C831A8309838FEF72
:100980009FE79E838D83AE01475E5F4F6F89788DB1
:10099000CE0101960E94D504EF81F885E00FF11F8A
:1009A00010822E96E4E00C94C107ABE0B0E0EBEDD2
:1009B000F4E00C9497076C017B018A01FC0117821B
:1009C0001682838181FFCCC1CE0101963C01F601E4
:1009D0009381F70193FD859193FF81917F01882396
:1009E00009F4BAC1853239F493FD859193FF819161
:1009F0007F01853229F4B60190E00E94CC06E7CF52
:100A0000912C212C312CFFE1F315D8F08B3279F0A9
:100A100038F4803279F08332A1F4232D20611DC097
:100A20008D3261F0803369F4232D216016C0832D4F
:100A30008260382EE32DE4603E2E2AC0F32DF8604C
:100A40001DC037FC2DC020ED280F2A3040F08E321B
:100A5000B9F436FC81C1232D2064322E19C036FE34
:100A600006C08AE0989E200D1124922E11C0EAE063
:100A70002E9E200D1124222EF32DF0623F2E08C051
:100A80008C3621F4832D8068382E02C0883641F4DC
:100A9000F70193FD859193FF81917F018111B3CF80
:100AA000982F9F7D9554933028F40C5F1F4F9FE340
:100AB00099830DC0833631F0833771F0833509F0A7
:100AC00059C021C0F801808189830E5F1F4F88249F
:100AD0008394912C530113C02801F2E04F0E511C56
:100AE000F801A080B18036FE03C0692D70E002C01D
:100AF0006FEF7FEFC5010E94C1064C018201F32D0B
:100B0000FF773F2E16C0280122E0420E511CF8014B
:100B1000A080B18036FE03C0692D70E002C06FEF87
:100B20007FEFC5010E94B6064C01F32DF0683F2E01
:100B3000820133FC1BC0822D90E088169906B0F428
:100B4000B60180E290E00E94CC062A94F4CFF50131
:100B500037FC859137FE81915F01B60190E00E94DC
:100B6000CC0621102A9421E0821A91088114910464
:100B700071F7E8C0843611F0893641F5F80137FE87
:100B800007C060817181828193810C5F1F4F08C013
:100B900060817181072E000C880B990B0E5F1F4F2F
:100BA000F32DFF763F2E97FF09C0909580957095A5
:100BB00061957F4F8F4F9F4FF0683F2E2AE030E0C6
:100BC000A3010E940807882E861845C0853731F496
:100BD000232D2F7EB22E2AE030E025C0932D997F61
:100BE000B92E8F36C1F018F4883579F0B5C080374A
:100BF00019F0883721F0B0C0E92FE061BE2EB4FEB5
:100C00000DC0FB2DF460BF2E09C034FE0AC0292F91
:100C10002660B22E06C028E030E005C020E130E0BA
:100C200002C020E132E0F801B7FE07C060817181A7
:100C3000828193810C5F1F4F06C06081718180E0CB
:100C400090E00E5F1F4FA3010E940807882E8618B0
:100C5000FB2DFF773F2E36FE0DC0232D2E7FA22EBB
:100C6000891458F434FE0BC032FC09C0832D8E7EEB
:100C7000A82E05C0B82CA32C03C0B82C01C0B92CD9
:100C8000A4FE0FC0FE01E80DF11D8081803321F428
:100C90009A2D997EA92E09C0A2FE06C0B394B394E2
:100CA00004C08A2D867809F0B394A3FC11C0A0FE7D
:100CB00006C0B21488F4280C922C9B180EC0B214F3
:100CC00060F4B60180E290E00E94CC06B394F7CFC6
:100CD000B21418F42B1802C0982C212CA4FE10C0BA
:100CE000B60180E390E00E94CC06A2FE17C0A1FCF2
:100CF00003C088E790E002C088E590E0B6010CC030
:100D00008A2D867859F0A1FE02C08BE201C080E2F4
:100D1000A7FC8DE2B60190E00E94CC06891438F45D
:100D2000B60180E390E00E94CC069A94F7CF8A94B3
:100D3000F301E80DF11D8081B60190E00E94CC0620
:100D40008110F5CF222009F442CEB60180E290E076
:100D50000E94CC062A94F6CFF6018681978102C0C4
:100D60008FEF9FEF2B96E2E10C94B307FC01059007
:100D7000615070400110D8F7809590958E0F9F1F9D
:100D80000895FC016150704001900110D8F78095E2
:100D900090958E0F9F1F08950F931F93CF93DF930E
:100DA000FB01238121FD03C08FEF9FEF2CC022FFA9
:100DB00016C046815781248135814217530744F478
:100DC000A081B1819D012F5F3F4F318320838C93A0
:100DD000268137812F5F3F4F3783268314C08B01D5
:100DE000EC01FB010084F185E02D0995892BE1F6EA
:100DF000D80116968D919C911797019617969C9302
:100E00008E931697CE01DF91CF911F910F91089588
:100E1000FA01AA27283051F1203181F1E8946F932B
:100E20006E7F6E5F7F4F8F4F9F4FAF4FB1E03ED0D1
:100E3000B4E03CD0670F781F891F9A1FA11D680F6F
:100E4000791F8A1F911DA11D6A0F711D811D911DA2
:100E5000A11D20D009F468943F912AE0269F112417
:100E60003019305D3193DEF6CF010895462F47707B
:100E7000405D4193B3E00FD0C9F7F6CF462F4F70D6
:100E8000405D4A3318F0495D31FD4052419302D034
:100E9000A9F7EACFB4E0A6959795879577956795DA
:100EA000BA95C9F700976105710508959B01AC01DA
:100EB0000A2E06945795479537952795BA95C9F701
:100EC000620F731F841F951FA01D0895F999FECF0F
:100ED00092BD81BDF89A992780B50895A8E1B0E048
:100EE00042E050E00C948907262FF999FECF1FBAF3
:100EF00092BD81BD20BD0FB6F894FA9AF99A0FBE43
:100F0000019608950E947407272F0C947507DC0141
:100F1000CB01FC01F999FECF06C0F2BDE1BDF89A04
:100F2000319600B40D9241505040B8F708952F9279
:100F30003F924F925F926F927F928F929F92AF9269
:100F4000BF92CF92DF92EF92FF920F931F93CF93B6
:100F5000DF93CDB7DEB7CA1BDB0B0FB6F894DEBF4D
:100F60000FBECDBF09942A88398848885F846E8473
:100F70007D848C849B84AA84B984C884DF80EE80BD
:100F8000FD800C811B81AA81B981CE0FD11D0FB6C6
:100F9000F894DEBF0FBECDBFED010895F894FFCFEA
:100FA000202020202020554E4950484F53202020FB
:100FB00020202020005265745F56616C75653A25CB
:040FC0003032640067
:00000001FF
